:080000000C9475000C94000043
:100008000C9400000C9400000C9400000C94000068
:100018000C9400000C9400000C9400000C94000058
:100028000C9400000C9400000C9400000C94000048
:100038000C9400000C9400000C9400000C94000038
:100048000C9400000C9400000C9400001027E803A6
:1000580064000A00010000100001100001003101D5
:10006800A2001201D3008C01B401600265026B0288
:10007800710276027C023430303000373439313442
:1000880000373438333200343030310037343830C8
:1000980034003734383734004943202573206861E9
:1000A80073206265656E207265636F676E697A6535
:1000B800640D0A004E4F2049430D0A0005006002F6
:1000C8007E0006006502830006006B0289000500B9
:1000D80071028F0006007602940006007C029A00E6
:1000E8000000F894EE27ECBBF1E0FBBFEBBFE5BFE7
:1000F8008DE0A2E0BB27ED938A95E9F780E098E0D0
:10010800A0E6ED930197E9F7E4ECF0E0859195918D
:10011800009761F0A591B59105901590BF01F00188
:1001280005900D920197E1F7FB01F0CFEFE5EDBFE8
:10013800E8E0EEBFC0E6D2E00C940802EFEBEABBC1
:10014800E5EFE7BBEFE7E4BBEFEAE1BB8B98A4E69A
:10015800B0E05CD49798AD9AC298C098AE9895983C
:10016800DF98DD9814D31DD324D328D3EA232BD3C7
:1001780030D309F043C1C29AC09AAE9A959ADF9AD1
:10018800DD9A05D32CD332D319D3EA2B1CD334D31D
:10019800E02909F033C1AAE0B0E038D432C1EFE772
:1001A800EABBECEFE7BBEFEFE4BBEFEE2AD3DD9859
:1001B800DE9895989698C298C398AE9827D3EA2364
:1001C800AE2FF7D22BD3E0E004D309F017C1DD98A6
:1001D800DE9A9598969AC298C39AAE9824D31ED35D
:1001E8002BD309F00BC1DD9ADE98959A9698C29A9E
:1001F800C398AE9A0BD3EA2BF9D210D31DD309F0CA
:10020800FDC0DD9ADE9A959A969AC29AC39AAE9ADA
:100218000AD304D311D309F0F1C0F3C014D3A4E670
:10022800B0E0F4D38B989798AA9A16D31CD328D306
:1002380009F0E4C036D33CD3D2D2C0D246D309F0B9
:10024800DDC00AD335D3ADD21BD309F0D7C029D32B
:100258000AD316D309F0D2C0D4C0EFEFEABBE9EF56
:10026800E7BBEFEFE4BBEFEBCCD2DF98949895981F
:10027800AE98AF98C098C398A0E08699A1E099D2AB
:100288002FD3E0E0A6D209F0B9C0DF989498959AE8
:10029800AE982BD3D1D209F0B1C0DF98949A959833
:1002A800AE982ED3C9D209F0A9C0DF98949A959A2E
:1002B800AE9831D3C1D209F0A1C0DF9A949895982D
:1002C800AE9AAF98C098C39AA0E08699A1E0E0E002
:1002D800B199E1E0EA2B04D3AFD209F08FC0DF9ADD
:1002E8009498959AAE9A01D3A7D209F087C0DF9A5D
:1002F800949A9598AE9A04D39FD209F07FC0DF9A5A
:10030800949A959AAE9A07D397D209F077C079C094
:100318009AD28B989798AA9AC4D2CAD242D2B0D20B
:1003280009F06CC099D2C4D23CD2AAD209F066C0F6
:10033800B8D299D2A5D209F061C08ED2AC9AAF9A40
:10034800C29A959ADE9ADB9AA0E0CC99A1E0E0E007
:10035800CF99E1E044D232D2B8D209F04FC051C0AF
:10036800EFEFEABBECEFE7BBE3E0E4BBEFEFE1BBA9
:100378008B989798A89AD9989698A99AC29AD89833
:10038800C398D4D2D9F5D89AC39ADA98DB98DC986E
:10039800DD98DE98DF9894989598C8D279F5DA9A1E
:1003A800DB9ADC9ADD9ADE9ADF9A949A959AA0E015
:1003B8009A99A1E0E0E09B99E1E0EA23AE2FE0E022
:1003C8009C99E1E0EA23AE2FE0E09D99E1E0EA2381
:1003D800AE2FE0E09E99E1E0EA23AE2FE0E09F999E
:1003E800E1E0EA23AE2FE0E0B099E1E0EA230E2E47
:1003F800A0E0B199A1E0E0E0ECD119F0E0E0F0E094
:100408000895E1E0F0E00895689788E160E070E021
:10041800E6E6F0E0E2D210E000E0E0E0EBB9E8E088
:10042800EAB9E6E8E0BDE0E0E0BDE7E4E9B9BC9A96
:10043800BD9AC498C5988B9883992AC000E010E0AB
:100448001630D0F4E12FF0E0DE0195D2099530970F
:1004580089F001E0E0EAF0E0FA93EA93E12FF0E0B6
:10046800DE011E9688D266277727CBD284E04FD14B
:10047800269602C01F5FE4CFA8ECB0E0C7D20030D8
:1004880039F4ECEBF0E0FA93EA9380E040D122965D
:10049800D3CFFFCFAA935D9BFECFE881ECB921961D
:1004A80008958FD28D013C81A32FF4DFD801ED91FF
:1004B800FD913196FE93EE938BD225960895BA93CB
:1004C800AA9326977CD210E0AC85BD85E0E0F0E0E9
:1004D800ED93FC93EA89FB893196EA8BFB8B319784
:1004E800E4912E2FE03009F40BC1E12FE03031F414
:1004F800253211F411E001C045D201C1E130A1F467
:10050800253211F43FD2FAC012E040E000E02D326B
:1005180011F401E0F4C02B3211F44BE2F0C02032A8
:1005280011F440E2ECC002C0E23039F450E013E0CC
:10053800203311F40068E3C003C0E33009F0DFC0E2
:10054800203310F02A3308F007C0AAE05A9F502D34
:10055800E22FE0535E0FD3C0E22FE33639F419D20D
:10056800E889F989A481AA931AD2C8C0E33729F483
:1005780010D21BD2F3D01E2F07C0E03749F409D29E
:1005880014D2F8D01E2F086002600F7730E03AC00E
:10059800E43611F0E93611F4046002C0E53731F4AD
:1005A800E4E5F0E0EE83FF8315E00CC0E83511F4D4
:1005B800086003C0E83709F0A1C0EEE5F0E0EE837B
:1005C800FF8314E002FF15C0E4D1A889B989149605
:1005D800ED91FD91EA87FB87AB85AA2322F409D226
:1005E800EA87FB874DE2403011F01F5F01C00B7FA7
:1005F80009C0CFD1A889B9891496ED91FC911197BA
:10060800EA87FB8700FD10C0151770F407FF08C0C4
:1006180002FF04C00B7F242F115001C020E301C04A
:1006280020E2B0D15150F0CF312F01FF16C0303049
:1006380099F003FF06C0EE81FF812591EE83FF83C9
:1006480005C0AE81BF812D91AE83BF839BD1503051
:1006580009F051503150EBCF48C020E3EE81FF81C3
:10066800CCD1E887F987EE81FF813296EE83FF834C
:10067800E885F985AA85BB85AE17BF0750F02F5FBF
:10068800A885B985EA85FB85EA1BFB0BEA87FB870A
:10069800EFCF2A3328F003FF02C0295F01C0295D8C
:1006A80004FD19C0213320F4A885B985119709F4F0
:1006B80009C0531710F000FF01C011C020E207FF66
:1006C8000AC020E3006102FF06C00B7F4A9367D18E
:1006D800503009F0515056D1503009F05150315036
:1006E800A885B985129708F0B8CF00FF07C0503029
:1006F80029F05150E0E2EA9352D1F9CF10E0EACE66
:10070800AC85BD85ED91FD9161D164960895FF9208
:10071800F82E26971A930A93DE0114960024AF0D3B
:10072800B01D8D01E0E0EC83ED83EE83EF83DE0105
:1007380018960024AF0DB01DED91FD91FA93EA9340
:100748001A930A93E5E5F2E0FA93EA93DE01189624
:10075800B6DE198108812896FF900895BA93AA9366
:10076800A991B991EE27FF276D91662311F0319673
:10077800FBCF0895BA93AA93AA27BB27E991F991C9
:100788000590002011F01196FBCFFD010895AAE015
:10079800B0E03CD1A0E0CE99A1E0E0E08499E1E0AE
:1007A8000895EA23AE2FE0E08699E1E0EA23AE2F30
:1007B8000895E0E0B199E1E0EA230895AE2FE0E082
:1007C800B399E1E008950E2EA0E09F99A1E0E0E042
:1007D8000895EA17E1E009F0EE27E0210895EA2BF1
:1007E800AE2FE0E08699E1E0EA2B0895AE2FE0E035
:1007F800B199E1E0EA2B0895EA17E1E009F4EE2760
:100808000895E1BB8B98AD9A97980895AF98A0E0AA
:10081800CF99A1E0E0E08499E1E008950E2EA0E0F0
:10082800B099A1E00895AF9AA0E0CF99A1E0E0E0E7
:100838008499E1E0EA2BDACFE1E0EA17E1E009F098
:10084800EE27E0290895EFE6EABBE6EFE7BBEFED18
:10085800E4BBEFEBE1BB0895AB9AAE9AC19A949AC8
:10086800DD9ADA9A0895AC9AAF9AC29A959ADE9A66
:10087800DB9AA0E0CC99A1E0E0E0CF99E1E091CF4C
:10088800E0E0B399E1E0EA23AE2FE0E0B099E1E0DF
:10089800EA230E2EA0E09D99A1E0E1E0ADDFE02182
:1008A8000895AB98AE98C1989498DD98DA98089511
:1008B800AC98AF98C2989598DE98DB98A0E0CC9950
:1008C800A1E0E0E0CF99E1E00895EA2BAE2FE0E067
:1008D800B099E1E0EA2B0E2EA0E09D99A1E0ACCF03
:1008E8000E2EA0E0B299A1E00895AF98C09AC39ADD
:1008F800A0E08699A1E0E0E0B199E1E0EA2BF0CF31
:10090800AF9AC098C39AA0E08699A1E0E0E0B199B7
:10091800E1E0EA2BE5CFAF9AC09AC39AA0E08699A6
:10092800A1E0E0E0B199E1E0EA2BDACFA0E09A9902
:10093800A1E0E0E09B99E1E0EA2BAE2FE0E09C9992
:10094800E1E0EA2BAE2FE0E09D99E1E0EA2BAE2F43
:10095800E0E09E99E1E0EA2BAE2FE0E09F99E1E02C
:10096800EA2BAE2FE0E0B099E1E0EA2B0E2EA0E0F2
:10097800B199A1E061CFEE0FFF1FAE0FBF1FED9140
:10098800FD9108952A93AD85BE85EF85F88909956F
:100998000895E889F9893497E88BF98B0895AD852E
:1009A800BE85EF85F88909950895A889B9891496AF
:1009B800ED91FD91EE83FF83AE81BF8108955A9337
:1009C8004A933A932A931A930A9308955D814C8126
:1009D8003B812A81198108810895AF93BF93DB0178
:1009E800AC0FBD1F05900D928A95E1F7BF91AF91AD
:1009F8000895F195E195F04008950590F491E02D62
:100A080008957A936A93FA93EA930895109639F0C1
:100A1800A89580ED97E00197F1F71197C9F7089528
:00000001FF
